S12300000000E22A800A860A8D0A930A990A9F0AA50AAB0AB10AB70ABC0AC20AC70ACC0A1D
S1230020D10AD60ADA0ADF0AE30AE70AEA0AEE0AF10AF40AF60AF80AFA0AFC0AFD0AFF0A55
S1230040FF0AFF0AFF0AFF0AFF0AFE0AFD0AFB0AF90AF70AF50AF20AEF0AEC0AE90AE50A8B
S1230060E10ADD0AD80AD40ACF0ACA0AC50ABF0ABA0AB40AAE0AA80AA20A9C0A960A900A2D
S1230080890A830A800A790A720A6C0A660A600A5A0A550A4E0A480A430A3D0A380A330AE3
S12300A02E0A290A250A200A1C0A180A150A110A0E0A0B0A090A070A050A030A020A000A73
S12300C0000A000A000A000A000A010A020A040A060A080A0A0A0D0A100A130A160A1A0AFD
S12300E01E0A220A270A2B0A300A350A3A0A400A450A4C0A510A570A5D0A630A690A6F0A1A
S1230100760A7C0A800A860A8D0A930A990A9F0AA50AAB0AB10AB70ABC0AC20AC70ACC0A22
S1230120D10AD60ADA0ADF0AE30AE70AEA0AEE0AF10AF40AF60AF80AFA0AFC0AFD0AFF0A54
S1230140FF0AFF0AFF0AFF0AFF0AFE0AFD0AFB0AF90AF70AF50AF20AEF0AEC0AE90AE50A8A
S1230160E10ADD0AD80AD40ACF0ACA0AC50ABF0ABA0AB40AAE0AA80AA20A9C0A960A900A2C
S1230180890A830A800A790A720A6C0A660A600A5A0A550A4E0A480A430A3D0A380A330AE2
S12301A02E0A290A250A200A1C0A180A150A110A0E0A0B0A090A070A050A030A020A000A72
S12301C0000A000A000A000A000A010A020A040A060A080A0A0A0D0A100A130A160A1A0AFC
S12301E01E0A220A270A2B0A300A350A3A0A400A450A4C0A510A570A5D0A630A690A6F0A19
S1230200760A7C0A800A860A8D0A930A990A9F0AA50AAB0AB10AB70ABC0AC20AC70ACC0A21
S1230220D10AD60ADA0ADF0AE30AE70AEA0AEE0AF10AF40AF60AF80AFA0AFC0AFD0AFF0A53
S1230240FF0AFF0AFF0AFF0AFF0AFE0AFD0AFB0AF90AF70AF50AF20AEF0AEC0AE90AE50A89
S1230260E10ADD0AD80AD40ACF0ACA0AC50ABF0ABA0AB40AAE0AA80AA20A9C0A960A900A2B
S1230280890A830A800A790A720A6C0A660A600A5A0A550A4E0A480A430A3D0A380A330AE1
S12302A02E0A290A250A200A1C0A180A150A110A0E0A0B0A090A070A050A030A020A000A71
S12302C0000A000A000A000A000A010A020A040A060A080A0A0A0D0A100A130A160A1A0AFB
S12302E01E0A220A270A2B0A300A350A3A0A400A450A4C0A510A570A5D0A630A690A6F0A18
S1230300760A7C0A800A860A8D0A930A990A9F0AA50AAB0AB10AB70ABC0AC20AC70ACC0A20
S1230320D10AD60ADA0ADF0AE30AE70AEA0AEE0AF10AF40AF60AF80AFA0AFC0AFD0AFF0A52
S1230340FF0AFF0AFF0AFF0AFF0AFE0AFD0AFB0AF90AF70AF50AF20AEF0AEC0AE90AE50A88
S1230360E10ADD0AD80AD40ACF0ACA0AC50ABF0ABA0AB40AAE0AA80AA20A9C0A960A900A2A
S1230380890A830A800A790A720A6C0A660A600A5A0A550A4E0A480A430A3D0A380A330AE0
S12303A02E0A290A250A200A1C0A180A150A110A0E0A0B0A090A070A050A030A020A000A70
S12303C0000A000A000A000A000A010A020A040A060A080A0A0A0D0A100A130A160A1A0AFA
S12303E01E0A220A270A2B0A300A350A3A0A400A450A4C0A510A570A5D0A630A690A6F0A17
S1230400760A7C0A800A860A8D0A930A990A9F0AA50AAB0AB10AB70ABC0AC20AC70ACC0A1F
S1230420D10AD60ADA0ADF0AE30AE70AEA0AEE0AF10AF40AF60AF80AFA0AFC0AFD0AFF0A51
S1230440FF0AFF0AFF0AFF0AFF0AFE0AFD0AFB0AF90AF70AF50AF20AEF0AEC0AE90AE50A87
S1230460E10ADD0AD80AD40ACF0ACA0AC50ABF0ABA0AB40AAE0AA80AA20A9C0A960A900A29
S1230480890A830A800A790A720A6C0A660A600A5A0A550A4E0A480A430A3D0A380A330ADF
S12304A02E0A290A250A200A1C0A180A150A110A0E0A0B0A090A070A050A030A020A000A6F
S12304C0000A000A000A000A000A010A020A040A060A080A0A0A0D0A100A130A160A1A0AF9
S12304E01E0A220A270A2B0A300A350A3A0A400A450A4C0A510A570A5D0A630A690A6F0A16
S1230500760A7C0A800A860A8D0A930A990A9F0AA50AAB0AB10AB70ABC0AC20AC70ACC0A1E
S1230520D10AD60ADA0ADF0AE30AE70AEA0AEE0AF10AF40AF60AF80AFA0AFC0AFD0AFF0A50
S1230540FF0AFF0AFF0AFF0AFF0AFE0AFD0AFB0AF90AF70AB10AB70ABC0AC20AC70ACC0A9D
S1230560D10AD60ADA0ADF0AE30AE70AEA0AEE0AF10AF40A090A070A050A030A020A000AD6
S1230580000A000A000A000A000A010A020A040A060A080A0A0A0D0A100A130A160A1A0A38
S12305A01E0A220A270A2B0A300A350A3A0A400A450A4C0A510A570A5D0A630A690A6F0A55
S12305C0760A7C0AB80B9E15030B9F15800B6023A1151F16A015BA0BA215030BA3152016B3
S12305E0A4152116A515FF0BA01F0330A11B2416251703354E2B040B221FA415A51DA514EA
S12306002316A51F24169E1525169F15800B6023A7151F16A61522169E1523169F15800BE0
S12306206023A915A5151F16A815A415020B221FA415A51DA5142316A51F24169E15251669
S12306409F15800B6023A515AB151F16A415AA152616AA152716AB15FF0BA61F0330A71BF1
S12306602A162B170335492B28169E1529169F15800B5023AA1524168415833F2534833BFB
S12306802A168015A8190335A919A4190335A519282B060BA21F0334A319EF2AA02B0C000B
S12306A000080335572B800803355B2B000A1E16841500160C001F168A151E1682150C008A
S12306C000080335682B800803356F2B9F1D000A1E16841500169F15841900160C005B234F
S12306E09D159E189F1B9F195B239C151D169F151C160C008E3B020BAF15AF1B000B2F1713
S123070003317D2B05388530822B053C05398530872B853C053985308B2B853C2E130330D5
S1230720053D033405398530932B853C05388530972B853C0C00080BC5150538053C0C00D2
S12307409B23871D800B07120334A12B0716020EAC15000B0334010EAD152C169E152D1653
S12307609F15800B5023AE157A238719A22B0C00010A000AC00A030A300A000A010A000AA5
S1050780000A69
S30500001230B8
S903FFFFFE
