S12300000114B404D50A0004D60A80047D10D80A160BD70AB604D90A0004DA0A170BDB0ACB
S1230020180BDC0AFF04D70F031CD80D1B0B9C0B831E6D140404990FDB0ADC0E5C0A1A0BCD
S1230040DC0F1B0BD50A1C0BD60A80047D10DE0A160BDD0A190BD50A1A0BD60A80047D108B
S1230060E00ADC0A160BDF0ADB0A0204990FDB0ADC0E5C0A1A0BDC0F1B0BD50A1C0BD60ABE
S123008080047D10DC0AE20A160BDB0AE10A1D0BE10A1E0BE20AFF04DD0F031CDE0D210B3B
S12300A0A20B831E68141F0BD50A200BD60A80046F10E10A1B0BC10AC31B1C1EC319210B5F
S12300C0C00ADF0C831EE00CDB0C831EDC0C47140604D90F031EDA0C0E1497140C0000013C
S12300E0831E76148001831E7A140003150BC10A000B0C00150BC20A0C000001831E8514E9
S12301008001831E8C14D60E0003150BC10A000BD60AC10C000B0C007A10D40A550CD60DCC
S1230120D60C7A10D30A140BD60A130B0C000104C70A5504070FCF0A6604870BCF0A6604EC
S12301400708CF0AC419040BFC060205C40A0104E30A0204E40A230B0301831CB314E30C83
S11D0160E40CE40CAB140C0001030003BC03000325030003010300030003D8
S30500001131B8
S903FFFFFE
