S12300000128B20B9515000B9615800B7F20981516169715B40B9915000B9A1517169B15E3
S123002018169C15FF0B971F0330981B1B161C1703356D28040B191F9B159C1D9C141A1676
S12300409C1F1B1695151C169615800B7F209E1516169D15191695151A169615800B7F2090
S1230060A0159C1516169F159B15020B191F9B159C1D9C141A169C1F1B1695151C16961585
S1230080800B7F209C15A21516169B15A1151D16A1151E16A215FF0B9D1F03309E1B21167B
S12300A02217033568281F16951520169615800B6F20A1151B168415833F1C34833B2116DA
S12300C080159F190335A0199B1903359C194728060B991F03349A190E2899280C00000810
S12300E003357628800803357A28000A1516841500160C0016168A15151682150C00000833
S123010003358728800803358E28961D000A1516841500169615841900160C007A2094153A
S12301209518961B96197A2093151416961513160C00010BC615550B461E8915660B46174B
S12301408915660B461089158E38010BA315020BA415231603080331B128A319A419A419C1
S1190160A9280C00010A000ABA0A000A070A000A010A000A000A8B
S30500001230B8
S903FFFFFE
