S12300000128B00B9E15000B9F15800B7F20A1151F16A015B20BA215000BA3152016A41596
S12300202116A515FF0BA01F0330A11B2416251703356D28040B221FA415A51DA514231613
S1230040A51F24169E1525169F15800B7F20A7151F16A61522169E1523169F15800B7F2024
S1230060A915A5151F16A815A415020B221FA415A51DA5142316A51F24169E1525169F15FE
S1230080800B7F20A515AB151F16A415AA152616AA152716AB15FF0BA61F0330A71B2A160F
S12300A02B170335682828169E1529169F15800B6F20AA1524168415833F2534833B2A1689
S12300C08015A8190335A919A4190335A5194728060BA21F0334A3190E2899280C000008DA
S12300E003357628800803357A28000A1E16841500160C001F168A151E1682150C00000818
S123010003358728800803358E289F1D000A1E16841500169F15841900160C007A209D1516
S12301209E189F1B9F197A209C151D169F151C160C0008168715B8169E15B9169F15800BDA
S12301406F20AC152C16071F85152C1607128615640B86150B0000000E000B00AE280C0043
S1170160010A000AB90A000A2D0A000A010A000A640A000AD7
S30500001230B8
S903FFFFFE
