S12300000128DD0B9E15000B9F15800BC320A1151F16A015DF0BA215000BA3152016A415F8
S12300202116A515FF0BA01F0330A11B2416251703356D28040B221FA415A51DA514231613
S1230040A51F24169E1525169F15800BC320A7151F16A61522169E1523169F15800BC3209C
S1230060A915A5151F16A815A415020B221FA415A51DA5142316A51F24169E1525169F15FE
S1230080800BC320A515AB151F16A415AA152616AA152716AB15FF0BA61F0330A71B2A16CB
S12300A02B170335682828169E1529169F15800BB320AA1524168415833F2534833B2A1645
S12300C08015A8190335A919A4190335A5194728060BA21F0334A3190E286F280C000816EE
S12300E087150916B0150816B1150916B2153016071F85153216311F851530160712861580
S12301003216311286150716800E7F0E03308A2830168515000B3117033590283216851593
S12301200716800E820E0330972830168515321685153216AC15AD1D2C1CAC152D1CAD15E5
S12301403116AE15AF1D2C162E100331AD282D162F100331AD2832168515330BB215330B8C
S1230160B115B1280C0000080335BA2880080335BE28000A1E16841500160C001F168A153B
S12301801E1682150C0000080335CB2880080335D2289F1D000A1E16841500169F1584199D
S12301A000160C00BE209D159E189F1B9F19BE209C151D169F151C160C00010A000AE50AA9
S10F01C0000A330A000A010A000A000ABF
S30500001230B8
S903FFFFFE
