S1230000E12A800A860A8D0A930A990A9F0AA50AAB0AB10AB70ABC0AC20AC70ACC0AD10A43
S1230020D60ADA0ADF0AE30AE70AEA0AEE0AF10AF40AF60AF80AFA0AFC0AFD0AFF0AFF0A27
S1230040FF0AFF0AFF0AFF0AFE0AFD0AFB0AF90AF70AF50AF20AEF0AEC0AE90AE50AE10AA9
S1230060DD0AD80AD40ACF0ACA0AC50ABF0ABA0AB40AAE0AA80AA20A9C0A960A900A890A85
S1230080830A800A790A720A6C0A660A600A5A0A550A4E0A480A430A3D0A380A330A2E0A3E
S12300A0290A250A200A1C0A180A150A110A0E0A0B0A090A070A050A030A020A000A000AA1
S12300C0000A000A000A000A010A020A040A060A080A0A0A0D0A100A130A160A1A0A1E0ADF
S12300E0220A270A2B0A300A350A3A0A400A450A4C0A510A570A5D0A630A690A6F0A760AC2
S12301007C0A800A860A8D0A930A990A9F0AA50AAB0AB10AB70ABC0AC20AC70ACC0AD10AC7
S1230120D60ADA0ADF0AE30AE70AEA0AEE0AF10AF40AF60AF80AFA0AFC0AFD0AFF0AFF0A26
S1230140FF0AFF0AFF0AFF0AFE0AFD0AFB0AF90AF70AF50AF20AEF0AEC0AE90AE50AE10AA8
S1230160DD0AD80AD40ACF0ACA0AC50ABF0ABA0AB40AAE0AA80AA20A9C0A960A900A890A84
S1230180830A800A790A720A6C0A660A600A5A0A550A4E0A480A430A3D0A380A330A2E0A3D
S12301A0290A250A200A1C0A180A150A110A0E0A0B0A090A070A050A030A020A000A000AA0
S12301C0000A000A000A000A010A020A040A060A080A0A0A0D0A100A130A160A1A0A1E0ADE
S12301E0220A270A2B0A300A350A3A0A400A450A4C0A510A570A5D0A630A690A6F0A760AC1
S12302007C0A800A860A8D0A930A990A9F0AA50AAB0AB10AB70ABC0AC20AC70ACC0AD10AC6
S1230220D60ADA0ADF0AE30AE70AEA0AEE0AF10AF40AF60AF80AFA0AFC0AFD0AFF0AFF0A25
S1230240FF0AFF0AFF0AFF0AFE0AFD0AFB0AF90AF70AF50AF20AEF0AEC0AE90AE50AE10AA7
S1230260DD0AD80AD40ACF0ACA0AC50ABF0ABA0AB40AAE0AA80AA20A9C0A960A900A890A83
S1230280830A800A790A720A6C0A660A600A5A0A550A4E0A480A430A3D0A380A330A2E0A3C
S12302A0290A250A200A1C0A180A150A110A0E0A0B0A090A070A050A030A020A000A000A9F
S12302C0000A000A000A000A010A020A040A060A080A0A0A0D0A100A130A160A1A0A1E0ADD
S12302E0220A270A2B0A300A350A3A0A400A450A4C0A510A570A5D0A630A690A6F0A760AC0
S12303007C0A800A860A8D0A930A990A9F0AA50AAB0AB10AB70ABC0AC20AC70ACC0AD10AC5
S1230320D60ADA0ADF0AE30AE70AEA0AEE0AF10AF40AF60AF80AFA0AFC0AFD0AFF0AFF0A24
S1230340FF0AFF0AFF0AFF0AFE0AFD0AFB0AF90AF70AF50AF20AEF0AEC0AE90AE50AE10AA6
S1230360DD0AD80AD40ACF0ACA0AC50ABF0ABA0AB40AAE0AA80AA20A9C0A960A900A890A82
S1230380830A800A790A720A6C0A660A600A5A0A550A4E0A480A430A3D0A380A330A2E0A3B
S12303A0290A250A200A1C0A180A150A110A0E0A0B0A090A070A050A030A020A000A000A9E
S12303C0000A000A000A000A010A020A040A060A080A0A0A0D0A100A130A160A1A0A1E0ADC
S12303E0220A270A2B0A300A350A3A0A400A450A4C0A510A570A5D0A630A690A6F0A760ABF
S12304007C0A800A860A8D0A930A990A9F0AA50AAB0AB10AB70ABC0AC20AC70ACC0AD10AC4
S1230420D60ADA0ADF0AE30AE70AEA0AEE0AF10AF40AF60AF80AFA0AFC0AFD0AFF0AFF0A23
S1230440FF0AFF0AFF0AFF0AFE0AFD0AFB0AF90AF70AF50AF20AEF0AEC0AE90AE50AE10AA5
S1230460DD0AD80AD40ACF0ACA0AC50ABF0ABA0AB40AAE0AA80AA20A9C0A960A900A890A81
S1230480830A800A790A720A6C0A660A600A5A0A550A4E0A480A430A3D0A380A330A2E0A3A
S12304A0290A250A200A1C0A180A150A110A0E0A0B0A090A070A050A030A020A000A000A9D
S12304C0000A000A000A000A010A020A040A060A080A0A0A0D0A100A130A160A1A0A1E0ADB
S12304E0220A270A2B0A300A350A3A0A400A450A4C0A510A570A5D0A630A690A6F0A760ABE
S12305007C0A800A860A8D0A930A990A9F0AA50AAB0AB10AB70ABC0AC20AC70ACC0AD10AC3
S1230520D60ADA0ADF0AE30AE70AEA0AEE0AF10AF40AF60AF80AFA0AFC0AFD0AFF0AFF0A22
S1230540FF0AFF0AFF0AFF0AFE0AFD0AFB0AF90AF70AB10AB70ABC0AC20AC70ACC0AD10ACB
S1230560D60ADA0ADF0AE30AE70AEA0AEE0AF10AF40A090A070A050A030A020A000A000AA7
S1230580000A000A000A000A010A020A040A060A080A0A0A0D0A100A130A160A1A0A1E0A1A
S12305A0220A270A2B0A300A350A3A0A400A450A4C0A510A570A5D0A630A690A6F0A760AFD
S12305C07C0AB70B9E15030B9F15800B5F23A1151F16A015B90BA215030BA3152016A4157D
S12305E02116A515FF0BA01F0330A11B2416251703354D2B040B221FA415A51DA51423166B
S1230600A51F24169E1525169F15800B5F23A7151F16A61522169E1523169F15800B5F2398
S1230620A915A5151F16A815A415020B221FA415A51DA5142316A51F24169E1525169F1538
S1230640800B5F23A515AB151F16A415AA152616AA152716AB15FF0BA61F0330A71B2A1666
S12306602B170335482B28169E1529169F15800B4F23AA1524168415833F2534833B2A16FD
S12306808015A8190335A919A4190335A519272B060BA21F0334A319EE2A9F2B0C00000846
S12306A00335562B800803355A2B000A1E16841500160C001F168A151E1682150C0000088C
S12306C00335672B800803356E2B9F1D000A1E16841500169F15841900160C005A239D15A8
S12306E09E189F1B9F195A239C151D169F151C160C008E3B020BAF15AF1B000B2F17033192
S12307007C2B05388530812B053C05398530862B853C053985308A2B853C2E130330053DCB
S1230720033405398530922B853C05388530962B853C0C00080BC5150538053C0C009A2359
S1230740871D800B07120334A02B0716010EAC15000B0334010EAD152C169E152D169F155F
S1230760800B4F23AE1579238719A12B0C00010A000ABF0A030A300A000A010A000A000A53
S30500001230B8
S903FFFFFE
